:100000008A110A12052800000900A301831686013F
:1000100083122308A2001B2022088600A30A2308BB
:10002000083C031D1428A301A630A8006130A900D4
:10003000572009281A282208003C031D22280130D5
:10004000A20052282208013C031D29280230A200E8
:1000500052282208023C031D30280430A2005228F6
:100060002208033C031D37280830A200522822082A
:10007000043C031D3E281030A20052282208053CF3
:10008000031D45282030A20052282208063C031DEB
:100090004C284030A20052282208073C031D522859
:1000A0008030A20008005328A80B54280800013013
:1000B000A8020001031C013EA902031C08005728E6
:1000C0000130A0020001031C013EA102031C080034
:0800D0004E30A8005420602806
:02400E00713F00
:00000001FF
