:100000008A110A1205280000090083168101831253
:100010008B01F0308316860087018312AA012A081B
:10002000033C031C43280130A000A1012A08EB2057
:10003000200886000430AB002B08073C031C3E2838
:100040000608A200A3012B08A100B620221C3A2812
:1000500004302B02AC000430A600A7012C08A2003B
:10006000A301D3202408AD002A082D07A9004520AC
:10007000290887000130AB07031C1C2886010130CA
:10008000AA07031C0F280E2844282908003C031D3A
:100090004C283F30A900B4282908013C031D5328EF
:1000A0000630A900B4282908023C031D5A285B30F9
:1000B000A900B4282908033C031D61284F30A9007A
:1000C000B4282908043C031D68286630A900B42818
:1000D0002908053C031D6F286D30A900B4282908A4
:1000E000063C031D76287D30A900B4282908073C6A
:1000F000031D7D280730A900B4282908083C031DEA
:1001000084287F30A900B4282908093C031D8B28C6
:100110006730A900B42829080A3C031D92287730CB
:10012000A900B42829080B3C031D99287C30A9009C
:10013000B42829080C3C031DA0283930A900B42894
:1001400029080D3C031DA7285E30A900B428290802
:100150000E3C031DAE287930A900B42829080F3CB5
:10016000031DB4287130A9000800B528A10AA20D0A
:10017000A30DA30CA20CA10BB92808001130A400F8
:10018000A30AA00DA10DC728031020180314A10C69
:10019000A00CA3030319CF20A40BC428080020102F
:1001A0002218201408001030A800A101A001A70CFB
:1001B000A60C031CE1282208A00723080318230F1C
:1001C000A107A10CA00CA50CA40CA80BD728080013
:0E01D0000310A00DA10DFF3E0318E828080043
:02400E00713F00
:00000001FF
