:100000008A110A120E280000FF00030E8301FE0071
:10001000BA207E0E8300FF0E7F0E090025100130EE
:10002000831686008112011383128B170B138B1218
:100030000B168B110B118B100B1083168701880187
:100040008312251C48280108A4008B1323082402CE
:10005000031831282308FF3CA70027082407A6001F
:10006000342823082402A60025102608A000A10198
:100070000430C8202008A2004A2022088700260851
:10008000A0000F302005A2004A20220888008B170C
:10009000212849282208003C031D51283F30A20096
:1000A000B9282208013C031D58280630A200B928AF
:1000B0002208023C031D5F285B30A200B9282208F9
:1000C000033C031D66284F30A200B9282208043CD7
:1000D000031D6D286630A200B9282208053C031DC7
:1000E00074286D30A200B9282208063C031D7B2825
:1000F0007D30A200B9282208073C031D8228073062
:10010000A200B9282208083C031D89287F30A200DC
:10011000B9282208093C031D90286730A200B9289D
:1001200022080A3C031D97287730A200B92822082C
:100130000B3C031D9E287C30A200B92822080C3CF1
:10014000031DA5283930A200B92822080D3C031D43
:10015000AC285E30A200B92822080E3C031DB3284B
:100160007930A200B92822080F3C031DB92871304C
:10017000A20008008B1CC1280108A30025148B10C5
:10018000C32890308B000800C4280310A10CA00CD9
:08019000FF3E0318C52808001A
:02400E00713F00
:00000001FF
