:100000008A110A120E280000FF00030E8301FE0071
:10001000C0207E0E8300FF0E7F0E09002A100130E3
:10002000831686008112011383128B170B138B1614
:100030000B168B110B118B100B1083168701880187
:1000400083122A1C4E280108A9008B1328082902B4
:10005000031831282808FF3CAC002C082907AB0006
:10006000342828082902AB002A102B08A000A1017F
:100070001030A200A301C8202008A70050202708A4
:1000800087002B08A000A1011030A200A301C82006
:100090002408A7005020270888008B1721284F2804
:1000A0002708003C031D57283F30A700BF2827081A
:1000B000013C031D5E280630A700BF282708023C2C
:1000C000031D65285B30A700BF282708033C031DDC
:1000D0006C284F30A700BF282708043C031D732855
:1000E0006630A700BF282708053C031D7A286D301D
:1000F000A700BF282708063C031D81287D30A700E4
:10010000BF282708073C031D88280730A700BF2801
:100110002708083C031D8F287F30A700BF28270829
:10012000093C031D96286730A700BF2827080A3C12
:10013000031D9D287730A700BF2827080B3C031D0F
:10014000A4287C30A700BF2827080C3C031DAB283F
:100150003930A700BF2827080D3C031DB2285E30A8
:10016000A700BF2827080E3C031DB9287930A70037
:10017000BF2827080F3C031DBF287130A7000800C7
:100180008B1CC6280108A8002A148B100800C72859
:100190001030A600A501A401210DA40DA50D220873
:1001A000A4022308031C230FA5020318DE2822083B
:1001B000A40723080318230FA5070310A00DA10D02
:0601C000A60BCC2808008C
:02400E00713F00
:00000001FF
