:100000008A110A12052800000900A1018316860141
:1000100083122108A000162020088600A10A2108CA
:100020000A3C031D1428A101092815282008003CBA
:10003000031D1D283F30A0005B282008013C031D44
:1000400024280630A0005B282008023C031D2B2832
:100050005B30A0005B282008033C031D32284F3092
:10006000A0005B282008043C031D39286630A0004E
:100070005B282008053C031D40286D30A0005B284C
:100080002008063C031D47287D30A0005B2820087F
:10009000073C031D4E280730A0005B282008083CC1
:1000A000031D55287F30A0005B282008093C031D54
:0A00B0005B286730A00008005C2800
:02400E00713F00
:00000001FF
