:100000008A110A120E280000FF00030E8301FE0071
:10001000BB207E0E8300FF0E7F0E0900A30124107B
:10002000831681128312B0308B0001308316860054
:10003000850188018312303085008B132308A000CE
:10004000A1010430CA202008A2004B202208A500EC
:100050002308A0000F302005A2004B202208A60094
:100060008B17810124183D28203085002508880041
:1000700010308500260888003228241C40284220A1
:100080001D2841282308203C031D4828A301492896
:10009000A30A241008002208003C031D52283F3008
:1000A000A200BA282208013C031D59280630A200EC
:1000B000BA282208023C031D60285B30A200BA283F
:1000C0002208033C031D67284F30A200BA282208EB
:1000D000043C031D6E286630A200BA282208053CA5
:1000E000031D75286D30A200BA282208063C031DA6
:1000F0007C287D30A200BA282208073C031D8328F3
:100100000730A200BA282208083C031D8A287F3045
:10011000A200BA282208093C031D91286730A200DA
:10012000BA2822080A3C031D98287730A200BA2872
:1001300022080B3C031D9F287C30A200BA2822080D
:100140000C3C031DA6283930A200BA2822080D3C19
:10015000031DAD285E30A200BA2822080E3C031D04
:10016000B4287930A200BA2822080F3C031DBA280F
:100170007130A20008008B1CC12820308B0624108F
:100180008B100B1DC52824140B110800C628031062
:0C019000A10CA00CFF3E0318C7280800BB
:02400E00713F00
:00000001FF
