:100000008A110A120528000009003F308316860075
:1000100088018312860188018B01A5012508053C12
:10002000031C38280130A000A10125085B2020080E
:10003000A6000608A200A3012508A1003B20221863
:1000400032280130A000A10125085B20200888008B
:100050000608A200A3012508A1003B202218312890
:1000600028283428803088000130A507031C0E287A
:100070000D2839283A28A10AA20DA30DA30CA20C21
:10008000A10B3E2808001130A400A30AA00DA10D69
:100090004C28031020180314A10CA00CA30303196F
:1000A0005420A40B4928080020102218201408000E
:0E00B0000310A00DA10DFF3E031858280800F4
:02400E00713F00
:00000001FF
