:100000008A110A12052800000900FF3083168600B5
:1000100088018312860188018B01A5012508053C12
:10002000031C3D280130A000A10125086020200804
:10003000A6000608A00026082005A700281027080B
:100040002602031D24282814281C37280130A0006C
:10005000A10125086020200888000608A200A3014D
:100060002508A1004020221C36282D283928803060
:1000700088000130A507031C0E280D283E283F28C4
:10008000A10AA20DA30DA30CA20CA10B43280800EA
:100090001130A400A30AA00DA10D512803102018AF
:1000A0000314A10CA00CA30303195920A40B4E2880
:1000B000080020102218201408000310A00DA10D24
:0800C000FF3E03185D28080053
:02400E00713F00
:00000001FF
