:100000008A110A120528000009008316860188015A
:100010008312860188018B01A5012508053C031C7C
:100020003C280130A000A10125085F202008A6007F
:100030000608A00026082005A70028102708260289
:10004000031D23282814281C36280130A000A101F4
:1000500025085F20200888000608A200A3012508C3
:10006000A1003F20221C35282C2838288030880009
:100070000130A507031C0D280C283D283E28A10AA5
:10008000A20DA30DA30CA20CA10B42280800113055
:10009000A400A30AA00DA10D5028031020180314DA
:1000A000A10CA00CA30303195820A40B4D28080091
:1000B00020102218201408000310A00DA10DFF3EEF
:0600C00003185C28080093
:02400E00713F00
:00000001FF
