:100000008A110A12052800000900013083168600B3
:1000100088018312860188018B012710A50125081C
:10002000053C031C3D280130A000A10125086020EB
:100030002008A6000608A00026082005A800291010
:1000400028082602031D25282914291C38280130D8
:10005000A000A10125086020200888000608A20051
:10006000A3012508A1004020221C37282E2839286A
:1000700088170130A507031C0F280E283E283F28AB
:10008000A10AA20DA30DA30CA20CA10B43280800EA
:100090001130A400A30AA00DA10D512803102018AF
:1000A0000314A10CA00CA30303195920A40B4E2880
:1000B000080020102218201408000310A00DA10D24
:0800C000FF3E03185D28080053
:02400E00713F00
:00000001FF
